{
  "contractName": "NumFun",
  "abi": [
    {
      "constant": true,
      "inputs": [],
      "name": "_initialized",
      "outputs": [
        {
          "name": "",
          "type": "bool"
        }
      ],
      "payable": false,
      "stateMutability": "view",
      "type": "function"
    },
    {
      "constant": true,
      "inputs": [],
      "name": "owner",
      "outputs": [
        {
          "name": "",
          "type": "address"
        }
      ],
      "payable": false,
      "stateMutability": "view",
      "type": "function"
    },
    {
      "inputs": [],
      "payable": false,
      "stateMutability": "nonpayable",
      "type": "constructor"
    },
    {
      "constant": true,
      "inputs": [],
      "name": "getNum",
      "outputs": [
        {
          "name": "",
          "type": "uint256"
        }
      ],
      "payable": false,
      "stateMutability": "view",
      "type": "function"
    },
    {
      "constant": false,
      "inputs": [
        {
          "name": "_newNum",
          "type": "uint256"
        }
      ],
      "name": "setNum",
      "outputs": [],
      "payable": false,
      "stateMutability": "nonpayable",
      "type": "function"
    }
  ],
  "bytecode": "0x60806040526000600560146101000a81548160ff02191690831515021790555034801561002b57600080fd5b5033600560006101000a81548173ffffffffffffffffffffffffffffffffffffffff021916908373ffffffffffffffffffffffffffffffffffffffff1602179055506101f98061007c6000396000f3fe608060405234801561001057600080fd5b506004361061004c5760003560e01c80633072cf601461005157806367e0badb146100735780638da5cb5b14610091578063cd16ecbf146100db575b600080fd5b610059610109565b604051808215151515815260200191505060405180910390f35b61007b61011c565b6040518082815260200191505060405180910390f35b610099610161565b604051808273ffffffffffffffffffffffffffffffffffffffff1673ffffffffffffffffffffffffffffffffffffffff16815260200191505060405180910390f35b610107600480360360208110156100f157600080fd5b8101908080359060200190929190505050610187565b005b600560149054906101000a900460ff1681565b60008060405180807f4e756d00000000000000000000000000000000000000000000000000000000008152506003019050908152602001604051809103902054905090565b600560009054906101000a900473ffffffffffffffffffffffffffffffffffffffff1681565b80600060405180807f4e756d000000000000000000000000000000000000000000000000000000000081525060030190509081526020016040518091039020819055505056fea165627a7a723058202cb96f5ba31d10a71166df8ecc0fce6fe572d2a7c7cbdfe8483628ff6c5853fd0029",
  "source": "pragma solidity >=0.4.22 <0.9.0;\n\nimport \"./Storage.sol\";\n\ncontract NumFun is Storage{\n  modifier onlyowner(){\n    require(msg.sender == owner);\n    _;\n  }\n\n  constructor() public{\n    owner = msg.sender;\n  }\n\n  function getNum() public view returns(uint){\n    return _uintStorage[\"Num\"];\n  }\n\n  function setNum(uint _newNum) public{\n    _uintStorage[\"Num\"] = _newNum;\n  }\n}\n",
  "sourcePath": "/Users/favor/Documents/EthPro/UpgradeContract/Part2/contracts/Num.sol",
  "compiler": {
    "name": "solc",
    "version": "0.5.8+commit.23d335f2.Emscripten.clang"
  },
  "schemaVersion": "3.0.16",
  "updatedAt": "2021-06-15T13:22:16.559Z",
  "devdoc": {
    "methods": {}
  },
  "userdoc": {
    "methods": {}
  }
}