{
  "contractName": "NumUpdated",
  "abi": [
    {
      "constant": true,
      "inputs": [],
      "name": "_initialized",
      "outputs": [
        {
          "name": "",
          "type": "bool"
        }
      ],
      "payable": false,
      "stateMutability": "view",
      "type": "function"
    },
    {
      "constant": true,
      "inputs": [],
      "name": "owner",
      "outputs": [
        {
          "name": "",
          "type": "address"
        }
      ],
      "payable": false,
      "stateMutability": "view",
      "type": "function"
    },
    {
      "inputs": [],
      "payable": false,
      "stateMutability": "nonpayable",
      "type": "constructor"
    },
    {
      "constant": false,
      "inputs": [
        {
          "name": "_initialize",
          "type": "address"
        }
      ],
      "name": "Initialized",
      "outputs": [],
      "payable": false,
      "stateMutability": "nonpayable",
      "type": "function"
    },
    {
      "constant": true,
      "inputs": [],
      "name": "getNum",
      "outputs": [
        {
          "name": "",
          "type": "uint256"
        }
      ],
      "payable": false,
      "stateMutability": "view",
      "type": "function"
    },
    {
      "constant": false,
      "inputs": [
        {
          "name": "_newNum",
          "type": "uint256"
        }
      ],
      "name": "setNum",
      "outputs": [],
      "payable": false,
      "stateMutability": "nonpayable",
      "type": "function"
    }
  ],
  "bytecode": "0x60806040526000600560146101000a81548160ff02191690831515021790555034801561002b57600080fd5b5061003b3361004060201b60201c565b6100b9565b600560149054906101000a900460ff161561005a57600080fd5b6001600560146101000a81548160ff02191690831515021790555080600560006101000a81548173ffffffffffffffffffffffffffffffffffffffff021916908373ffffffffffffffffffffffffffffffffffffffff16021790555050565b61031b806100c86000396000f3fe608060405234801561001057600080fd5b50600436106100575760003560e01c80633072cf601461005c57806367e0badb1461007e5780638da5cb5b1461009c578063908408e3146100e6578063cd16ecbf1461012a575b600080fd5b610064610158565b604051808215151515815260200191505060405180910390f35b61008661016b565b6040518082815260200191505060405180910390f35b6100a46101b0565b604051808273ffffffffffffffffffffffffffffffffffffffff1673ffffffffffffffffffffffffffffffffffffffff16815260200191505060405180910390f35b610128600480360360208110156100fc57600080fd5b81019080803573ffffffffffffffffffffffffffffffffffffffff1690602001909291905050506101d6565b005b6101566004803603602081101561014057600080fd5b810190808035906020019092919050505061024f565b005b600560149054906101000a900460ff1681565b60008060405180807f4e756d00000000000000000000000000000000000000000000000000000000008152506003019050908152602001604051809103902054905090565b600560009054906101000a900473ffffffffffffffffffffffffffffffffffffffff1681565b600560149054906101000a900460ff16156101f057600080fd5b6001600560146101000a81548160ff02191690831515021790555080600560006101000a81548173ffffffffffffffffffffffffffffffffffffffff021916908373ffffffffffffffffffffffffffffffffffffffff16021790555050565b600560009054906101000a900473ffffffffffffffffffffffffffffffffffffffff1673ffffffffffffffffffffffffffffffffffffffff163373ffffffffffffffffffffffffffffffffffffffff16146102a957600080fd5b80600060405180807f4e756d000000000000000000000000000000000000000000000000000000000081525060030190509081526020016040518091039020819055505056fea165627a7a72305820f4784f915348894a119c06c9202de25df0a7eeb74e8f324f66b083e446004a8f0029",
  "source": "pragma solidity >=0.4.22 <0.9.0;\n\nimport \"./Storage.sol\";\n\ncontract NumUpdated is Storage{\n\n  uint vake;\n  modifier onlyowner(){\n    require(msg.sender == owner);\n    _;\n  }\n\n  constructor() public{\n    Initialized(msg.sender);\n  }\n\n  function Initialized(address _initialize) public{\n    require(!_initialized);\n    _initialized = true;\n    owner = _initialize;\n  }\n\n  function getNum() public view returns(uint){\n    return _uintStorage[\"Num\"];\n  }\n\n  function setNum(uint _newNum) public onlyowner{\n    _uintStorage[\"Num\"] = _newNum;\n  }\n}\n",
  "sourcePath": "/Users/favor/Documents/EthPro/UpgradeContract/Part2/contracts/NumUpdated.sol",
  "compiler": {
    "name": "solc",
    "version": "0.5.8+commit.23d335f2.Emscripten.clang"
  },
  "schemaVersion": "3.0.16",
  "updatedAt": "2021-06-15T13:22:16.561Z",
  "devdoc": {
    "methods": {}
  },
  "userdoc": {
    "methods": {}
  }
}